:020000041000EA
:1000000000B5324B212058609868022188439860DF
:10001000D860186158612E4B002199600421596104
:100020000121F02299502B49196001219960352056
:1000300000F044F80222904214D00621196600F024
:1000400034F8196E01211966002018661A6600F04E
:100050002CF8196E196E196E052000F02FF8012189
:100060000842F9D1002199601B49196000215960AB
:100070001A491B48016001219960EB211966A021F2
:10008000196600F012F800219960164914480160C1
:100090000121996001BC002800D000471248134993
:1000A000086003C880F30888084703B5996A0420EC
:1000B0000142FBD001200142F8D103BD02B5186610
:1000C0001866FFF7F2FF186E186E02BD00000240BE
:1000D000000000180000070000035F00212200005C
:1000E000F4000018222000A00001001008ED00E03C
:1000F000000000000000000000000000070B8FD58A
:10010000802D0020BD3A001073820010A93A001023
:1001100000000000000000000000000000000000DF
:10012000000000000000000000000000993B0010EB
:100130000000000000000000293B001011530010D7
:10014000093D0010093D0010093D0010093D001057
:10015000093D0010093D0010093D0010093D001047
:10016000093D0010093D0010093D0010093D001037
:10017000093D0010093D0010093D0010093D001027
:10018000093D0010093D0010093D0010093D001017
:10019000093D0010093D0010093D0010093D001007
:0801A000093D0010093D0010AB
:1001A80002B4714649084900095649008E4402BC08
:1001B8007047C04602B4714649084900095C4900C5
:1001C8008E4402BC7047C046002934D00123002267
:1001D80010B488422CD301242407A14204D28142BE
:1001E80002D209011B01F8E7E400A14204D28142CE
:1001F80002D249005B00F8E7884201D3401A1A434B
:100208004C08A04202D3001B5C0822438C08A04281
:1002180002D3001B9C082243CC08A04202D3001B37
:10022800DC082243002803D01B0901D00909E3E7B1
:10023800100010BC704701B5002000F05FF802BD47
:100248000029F8D003B5FFF7C1FF0EBC4243891A55
:100258001847C046002941D010B404004C40A446B9
:1002680001230022002900D54942002800D5404238
:1002780088422CD301242407A14204D2814202D20D
:1002880009011B01F8E7E400A14204D2814202D22D
:1002980049005B00F8E7884201D3401A1A434C082A
:1002A800A04202D3001B5C0822438C08A04202D360
:1002B800001B9C082243CC08A04202D3001BDC0888
:1002C8002243002803D01B0901D00909E3E71000E5
:1002D8006446002C00D5404210BC704701B5002090
:1002E80000F00CF802BDC0460029F7D003B5FFF7AF
:1002F800B3FF0EBC4243891A1847C0467047C04630
:10030800D0400B00D1409C46203AD340184352427B
:1003180063469340184370471C2101231B049842ED
:1003280001D3000C10391B0A984201D3000A08397E
:100338001B09984201D30009043902A2105C401835
:100348007047C046040302020101010100000000D9
:1003580000000000414208401C2101231B04984270
:1003680001D3000C10391B0A984201D3000A08393E
:100378001B09984201D30009043902A2105C401AF3
:100388007047C0461B1C1D1D1E1E1E1E1F1F1F1F43
:100398001F1F1F1F002B11D1002A0FD1002900D1C8
:1003A800002802D00021C943080007B4024802A16E
:1003B8004018029003BDC04645FFFFFF03B46846DE
:1003C80001B5029800F0EDFB019B9E4602B00CBC03
:1003D8007047C0464A02F8B543024400C50F500AA8
:1003E80084464800240E000E5F0AC90F9B09920933
:1003F800261A8D4200D09EE0002E42DD8021C904DD
:1004080000281ED1002A0AD0661E012C05D19B188F
:1004180001340B4246D1013C01E0FF2C14D15A07AC
:1004280004D00F221A40042A00D004335A0100D401
:100438002EE101340026FF2C19D09D4EDB081E400A
:1004480015E0FF2CEBD00A431B2E01DD0133E6E754
:100458002020801B11008240F140501E82410A4337
:100468009B185A01DBD501340026FF2C1AD1FF2333
:10047800E005DB057602760A18403043ED0728438D
:10048800F8BD002E2ED08026011BF604002C14D1B6
:10049800002B00D1F3E04C1E01290AD19B1802243D
:1004A8003342B8D0012283491A405B080B401343FA
:1004B800B5E7FF2906D11300AEE0FF2800D1E0E040
:1004C8000C0033431B2C02DD531C0400A7E7190062
:1004D8002026E140341BA3405C1EA3410B430400CB
:1004E8009B18BEE7FE20611C01421ED1002C0DD1D5
:1004F800002B00D1C7E0002A00D190E79B185A01D1
:1005080000D48CE76C4A13400C0088E7002BD2D04B
:10051800FF24002A00D182E78023DB039F4202D315
:100528009C4500D26746FB0076E00C00FF299ED070
:100538009B185B0873E7002E25DD00281CD1002AD4
:1005480000D16CE7661E012C06D19B1A5A0100D413
:1005580065E79B019E0975E0FF2C00D15FE701214B
:100568001B2E07DC2020801B11008240F140501E0A
:10057800824111435B1AE9E7FF2C00D14FE7802144
:10058800C9040A43EBE7002E25D0051B002C0DD12A
:10059800002B08D06E1E012D03D10D00D31A013493
:1005A800D4E7FF2D08D113002C0021E0FF286CD0E0
:1005B80080242E00E404234301241B2E07DC20257D
:1005C800AD1B1C00AB40F4405D1EAB411C43131B2C
:1005D8000D000400BAE7FE26601C30422DD1002C25
:1005E80014D1002B06D125002600131E00D13EE7AA
:1005F8000D0014E7002A00D111E79E1AD31A7001E2
:10060800F6D4331E00D00AE7350030E7002B05D1B9
:10061800002A49D013000D00FF2400E7FF24002A18
:1006280000D1FCE68023DB039F4200D27BE79C4598
:1006380000D378E767460D0075E79E1A700115D557
:100648000D00D61A3000FFF767FE330005388340E7
:10065800844210DC2022001B0130121A190093403A
:10066800C1405A1E934100240B43D8E6002EE9D11D
:1006780035003400FBE6104A241A1340CFE6130075
:1006880042E7130021E71300C9E613000400AFE7AF
:10069800DE08FF2C00D0EAE6002E00D1E7E6802332
:1006A800DB03FF241E43E2E680261500F603F6E787
:1006B800FFFF7F1FFFFFFF7DFFFFFFFBF0B5C30FAD
:1006C80085B0440245000F1C640A2D0E0393029363
:1006D8000AD0FF2D3BD08023E400DB041C43002319
:1006E8007F3D019500930EE0012301940093002CB7
:1006F80009D02000FFF710FE431F9C4076235B4281
:100708001B1A019300957D027E006D0A360EFF0FBD
:10071800002E23D0FF2E2ED08023ED00DB041D43B6
:1007280033007F3B002201980399C31A009879404F
:100738008000104301380E2823D8FFF73BFD4D9960
:1007480073999299734D4D927361616153000223BD
:1007580001950093002CD6D00133C3E72B0001226A
:10076800002DE0D02800FFF7D7FD431F9D407623DA
:100778005B421B1AD6E733000222002DD3D0013288
:10078800D1E764016D01AC4228D31A200122641B11
:100798000126270052006400002F01DBA54201D882
:1007A800641B324301380028F3D1601E844114438E
:1007B80018007F30002838DD620704D00F2222405D
:1007C800042A00D00434220103D5803318002B4AB0
:1007D8001440E508FE281DDD00250FE01B2000223F
:1007E800013BD5E78023DB031C4203D01D4201D126
:1007F8002C00029780250299ED032543FF2009E08C
:100808000399009A022AE7D0032A2FD0002528004E
:10081800012ACDD16D026D0AC0052843C9070843D6
:1008280005B0F0BD2C003900ECE701220025121AB2
:1008380028001B2AEEDC9E3325009C40D540631E11
:100848009C4125436B0704D00F232B40042B00D079
:10085800043580232800DB0418401D420BD1ED0825
:10086800D8E780240023E4030293C3E70291C1E799
:1008780000252800CEE700250120CBE7FFFFFFF782
:10088800F0B5C30F85B04702440002917F0A240ED9
:1008980003930AD0FF2C71D080227F3C26000023CE
:1008A800FF00D204174301930CE001233E1E01937D
:1008B80008D03800FFF730FD7626431F9F40764268
:1008C800361A0194029B5C025D00DB0F640A2D0E50
:1008D80002935AD0FF2D64D080232800E400DB0463
:1008E8001C437F3800230299039A4A4081190198D2
:1008F8008C46850001311D430A2D00DD78E0022D6C
:1009080055DC013D012D63D9250CA4B226003B0C12
:10091800B8B246435C4368436B4300191F00330C6D
:100928001B189C4202D9802040023F181804B6B216
:100938008619B401601E84411B0CB60EDB193443C2
:100948009B011C431B0168D5012360081C4004431C
:1009580008007F30002862DD630704D00F2323409E
:10096800042B00D00434230103D5803108003E4B0A
:100978001C40E508FE2833DD00254CE00223260054
:100988000193002F9ED001338DE720000123002C16
:10099800A9D0FFF7C1FC431F9C4076235B42181A7D
:1009A800A0E728000223002C9DD001339BE70120FB
:1009B800A840A6250600ED002E4028421DD190250E
:1009C800AD00284247D1B93DFF3D28429CD0029A4C
:1009D800022BD1D0032B42D000252800012BB7D100
:1009E8006D026D0AC0052843D207104305B0F0BD5B
:1009F800039A0F2D04D00B2DE9D03C00019BE7E7AB
:100A08008023DB031F4203D01C4201D12700029A36
:100A18008025ED033D43FF20E2E7614698E7012387
:100A280000251B1A28001B2BDADC9E3125008C4080
:100A3800DD40631E9C4125436B0704D00F232B40E8
:100A4800042B00D0043580232800DB0418401D4205
:100A580007D1ED08C4E780273200FF03D8E7270055
:100A6800D6E700250120BBE7FFFFFFF7410243005F
:100A7800C20F490A00201B0E7E2B03DD9D2B02DDD1
:100A8800084BD0187047802000040843952B05DDDB
:100A9800963B9840002AF5D04042F3E79621CB1ABE
:100AA800D840F7E7FFFFFF7F002370B504009842A6
:100AB80009D0FFF731FC9E231B1A962B08DC082867
:100AC80029D0083884406402D805640A204370BDE0
:100AD800992B1BDD020021001B3291400A00511E98
:100AE8008A410521091ACC40144322000B4D2A40A3
:100AF800610704D00F212140042900D0043251019C
:100B080002D59F232A401B1AD408DCE7421F052878
:100B1800EBD09440E9E79623D5E7C046FFFFFFFBFB
:100B28009140030090409C46203A9340194352421A
:100B38006346D3401943704710B5002903D1FFF726
:100B4800EBFB203002E00800FFF7E6FB10BDC046D3
:100B58000023C25C0133002AFBD1581E7047F7B549
:100B6800040C0D0091B20F0061438C4606000193FE
:100B780083B2100C5F43444358433B0C60441B183A
:100B8800994202D980214902641801995543714359
:100B9800180C04191B04BFB24919D819091903B054
:100BA800F0BDF0B506000F0015001C0085B08B42A3
:100BB80063D801D1824260D821002800FFF7BCFF2A
:100BC800390000903000FFF7B7FF009B21001B1A87
:100BD8001A0028000393FFF7A3FF00900191B94280
:100BE80045D801D1B04242D8009B019C0120002188
:100BF800039AF61AA741FFF793FF04000D00039B21
:100C0800002B2BD0019B009ADB0750081843019B4F
:100C18005908039B9C46B9422CD801D1B04229D827
:100C280032003B00121A8B41012692185B410027C3
:100C3800B6185F4101235B429C446346002BEAD10E
:100C480030003900039AFFF75BFB039AA4197D4132
:100C580006000F00FFF764FF241A8D410A9B002B42
:100C680001D01E605F602000290005B0F0BD00249F
:100C78000025C4E7B6197F41DCE700240025EDE72D
:100C8800F0B51B4D060087B02868836800215B68B3
:100C980004AA9847041E25D1049A059B029203933F
:100CA80002980399FA2200239200FFF758FF0023C5
:100CB800104AFFF76FFB029A039B21002F6805007B
:100CC8003000FFF74CFF00230A4AFFF763FB0300DD
:100CD800BA68854209D300942100166838002A00B2
:100CE800B0470400200007B0F0BD16246442F9E7BD
:100CF800000C002040420F0007B56B46D91D054B7C
:100D08000870186883685B69002B01D00122984736
:100D180007BDC046040C0020F0B5040087B0A368E6
:100D28005B6C002B2FD1A3685B6B002B31D1A368C0
:100D38009B69002B24D01022200002A9984700228A
:100D4800164B174901938242E9D002ABD35C1E00CF
:100D5800EFF31083009372B61F270B68019D0133D0
:100D68003B402F68BB4203D00F680E4D0B60EE5519
:100D7800009B002B02D162B6BFF36F8F0132E2E70E
:100D880058204042DBE7200098470028CBD107B025
:100D9800F0BD200098470028C9D1F8E7F80B0020DB
:100DA800FC0B002047150020431E984110B5040095
:100DB8000020FFF765FF22001921064806F035FBE1
:100DC8000021054806F044FB2100044806F040FBDA
:100DD80010BDC04628910010080C00200C0C002003
:100DE8000023F0B585B0884F8848894C0393894B18
:100DF8003860236007F065FE002805D1864806F0B4
:100E080073FC002005B0F0BD206807F05AFE0028EA
:100E180001D18248F3E7824E300007F052FE0028E5
:100E280001D18048EBE731697F480A68B36802401E
:100E38000A60802219211B68920230009847FA2420
:100E48007A4806F051FC0025A400039B002B57D0DC
:100E5800774806F049FC774806F046FC764806F0E5
:100E680043FC764806F040FC754806F03DFC7548A2
:100E780006F03AFC744806F037FC744806F034FC77
:100E8800734806F031FC38688368002B05D09B6CEA
:100E9800002B02D000226F499847386883689B6A04
:100EA800002B00D098470020FFF77EFF6A4806F025
:100EB8001BFCEFF3108072B6684B694A1968136817
:100EC800994200D195E01F2413686649C95C1368EC
:100ED800013323401360002802D162B6BFF36F8F3D
:100EE800614D2B78012B47D0022B16D0002B50D107
:100EF8004B1E012BDDD85D4B197001232B70D8E7F1
:100F0800386883681B6D002B02D0042103AA984718
:100F18002000290005F044FC97E70822534C237869
:100F280001935FB2BC465F00072360467B40DBB29B
:100F380000281DDA013AD2B2002AF2D108276478D3
:100F480063405AB294465A00072360465340DBB2C6
:100F580000280FDA013FFFB2002FF2D18B420FD0E9
:100F6800FE20FFF7C9FE0120FFF7C6FE2F70A0E79D
:100F7800FBB2DFE7D3B2EDE73C4B59700223BDE784
:100F8800019B012B07D12000FFF70EFFFF20FFF781
:100F9800B3FE0023B2E7019B022BFAD1642C23D8BD
:100FA800002C10D12000FFF76BFE22001921300021
:100FB80006F03BFA21002E4806F04AFA21002D4897
:100FC80006F046FAE2E7FA20800064216043FFF762
:100FD800FBF8FFF755FE002806D12100244806F04B
:100FE80037FA01212348EBE7FE20FFF785FE0320AF
:100FF800CDE7002802D162B6BFF36F8F00216420CD
:1010080005F0CEFB55E7C046040C0020F090001018
:10101800000C0020449100103496001052960010E5
:10102800289100106F960010FFFFFFFD8C960010AE
:10103800AB960010D0960010E896001000970010AC
:101048001597001033970010629700109A970010B8
:10105800B9970010210D0010DF970010FC0B00203D
:10106800F80B0020471500204615002044150020E5
:10107800080C00200C0C0020F0B597B00593042351
:101088000B921A400B9B0A92DA0807231A40013286
:1010980007001C9D03910D92820700D0C5E1041D35
:1010A800002804D0072909D81C20404254E1039A9B
:1010B8001A401300A4180822D31A0393059B042688
:1010C800013B0693002309930C9304930293013B7D
:1010D80007930196002F01D0059B23600D9B002BE1
:1010E80000DDF1E09D4B059A9A4203D39C4B9A424E
:1010F80000D2E9E00B99E21B9308890700D50DE1BE
:10110800049A0F2A00D9BBE0002F00D10EE1049900
:101118000EAA53540A00079912AB99540C9B013339
:101128000C93F4E008260196069B01330693069B70
:101138009878002800D105E1029B002B08D12528CA
:10114800F2D1079B01330793012302930426EAE7B0
:101158007A284AD84B280ED8472846D829282CD888
:1011680025283FD041D82028DED023384342584193
:10117800C3B20293D8E74C382E2836D8FFF710F8B8
:10118800D435353535353535353535353735353566
:10119800353535353561353737616161D437D23505
:1011A800D435183718353579E63735353735E6000B
:1011B800002308930426029327E0012213002A380B
:1011C800C0B2834067490B42AED1E22118008905BD
:1011D80008400B4235D11900114002911342A3D0A7
:1011E800089013E0079B013B07930023C1E7002207
:1011F800069B08925B7802926C2B07D10426069B0B
:1012080001961B786C2B01D1B6190196013CA019E7
:101218003100FEF7D9FF70430400002F3BD0019B3B
:10122800039ADB1B1B18934200D93DE7089B002B50
:1012380041D1019B042B20D108CD03600423043441
:1012480015E0072107358D4364188C430CCD002F1A
:1012580008D00131C91B03980919814200D923E735
:101268002260636000230826029333000834019348
:101278005AE7029B089300239CE7019B082B01D0A7
:10128800162012E7072307359D430CCD0260436003
:1012980008230834EBE7089B002B0CD1019B042B97
:1012A80001D10435CAE7019B082BE9D10735013B79
:1012B8009D430835ECE7069B023306930D9B013BE3
:1012C8000D9308CD059305E70B9B9B0722D50121BC
:1012D800E21B9308802080008242D1D2049A0F2A10
:1012E800CED8002F1CD00498DBB20EAA13549C460B
:1012F800079B12AA1354002900D10FE780226346E6
:10130800524213430EAA1354099B01330993049BB9
:1013180001330493069B0434013B07E70021D9E716
:10132800002903D0039B01330393F0E7039B0233A7
:1013380003930A9B002BEAD10598FFF709FC039B4E
:101348001B18F1E78022E31BD200934298D2002FAA
:101358000AD103980838C01817B0F0BD40900010A3
:1013680094A20010DAFF00009B08302238603B701E
:101378006B469B180A9A1B78002A0BD0FB70099BB6
:10138800BB70002B1BD100250EAE049BAB421BD1BA
:10139800E01BE1E77B70F2E70EADED560EA9595C54
:1013A800002D07DA039E15190140B54200D97BE6E6
:1013B80021700134013304999942EDD1E3E7012208
:1013C80000237F20D21BF6E7099B002B02D033783D
:1013D8007F2B1BD80A9B002B1BD012ABEB5C237016
:1013E8000023013401930123019ADB1B1B199B186D
:1013F800039A934200D957E63378019A237001344F
:101408002000059907F05AFD019B1C19013501368A
:10141800BBE733789B00FB181A6805920A9A05986F
:101428001A60FFF795FB431CDCE70E203DE6C0463B
:10143800F0B59BB000AF3B628023FB181B68060029
:101448001B07DB0F7B618378F9623A63BB63002972
:101458000AD10478BB6BA400E41845780419FB6A28
:101468009D421BD8A31BFB62F378BB61BB6B002BAF
:1014780004D08023FB181B68DB0719D4BB69002B39
:1014880047D13B6B002B03D030003A6AF96A984782
:10149800FB6AFB63BD46F86B1BB0F0BD013420004E
:1014A800FFF756FBFB6A013001332418FB62D6E7CD
:1014B8003378FB619B007B627368BB627B6AF518BB
:1014C8003B6B002B00D029E1FB6AFB63BB6BEC187C
:1014D8000023BB63A54232D02B789B009859FFF7B5
:1014E80037FB84217B181B680130002B0CD0882225
:1014F800BA18BB6B1268934206D27A1812685B005E
:101508009852BB6B0133BB63FB6B01351B18FB6344
:10151800E0E78023FB181B689B07B2D53378FB6193
:101528009B007B627368BB627B6AF5183B6B002B80
:1015380077D1FB6AFB63BB6BEC183B6BBB63802208
:101548000523BA181268250013405A425341013343
:10155800FB62BB695B00E3183B633B6BAB4299D012
:101568002B787B636B789B009C59B84B9C4202D3C9
:10157800B74B9C4223D37B69002B33D0796BB86A75
:1015880006F08BF800282DD06C468AB06A46B14B1D
:101598005361BB6A93617B6BD36180239B00138487
:1015A800AD4B136192210023AC481032890100F041
:1015B80033FCA546FB6B023BFB630235CDE77B6939
:1015C800002B05D0796BB86A06F067F80028DBD1E4
:1015D80080230122FB181B68134209D1FB6BFA6AAE
:1015E8009B1AE9E780230222FB181B681342E4D008
:1015F8002000FFF7ADFA84217B181B68002B0DD063
:101608008822BA18BB6B1268934207D27918096806
:101618005B00421C5A52BB6B0133BB63FB6B1B184C
:10162800CAE7BB6B1C1E7B6315D0802104237A1884
:1016380012681A4014007A637A1812681A420AD09B
:101648000023BC6B7B63183340229B182900BA6BBC
:10165800D81907F033FCBB6BEB18FB60FB63BB6965
:101668005B003B613A69FB68944663447B60FB6BB3
:101678007A68934257D17B6B757800215A19802379
:10168800FB181B68D2B29B0700D461088020381869
:1016980000680023C00705D48033FB181B685B076C
:1016A800DB1723407270B370F17030003A6A796AC0
:1016B8003B6B9847F863002800DAEBE6FB694020AB
:1016C8003370BB6B2100B370BB693A6AF37018239F
:1016D8001B18D81975703B6B9847041E00DAB1E0E7
:1016E800FB6ABA6BF868991A7B6A3A6AC91A3B6945
:1016F8009C46C91A60443B6B9847002800DAA3E06F
:101708000025FB6B1C192318FB637B6B9D4261D37F
:1017180000213A6A08003B6B9847BBE6BB6B002484
:101728007B63082390E7FB6B484A1B78BB60FB6B25
:101738005D78AB009B59934202D3454A93420CD340
:101748007B69002B30D0B968B86A05F0A6FF00287D
:101758002AD0FB6B0233FB6389E77B69002B05D03A
:10176800B968B86A05F099FF0028F2D180230122F0
:10177800FB181B6813420AD07B6B9B180732402169
:101788005218796BD219DBB255547B63E1E7802399
:10179800FB181B685B07DCD5182240215218631C14
:1017A800D2191555DCB2D4E780230222FB181B6836
:1017B800134203D07B6B06320133E0E74021182245
:1017C8005218B968631CD2191155DBB20234E4B25D
:1017D800D554BEE7402208239B18DB19EB5C07327F
:1017E800BA18137084229B009B59BB63BB181C68F2
:1017F800002C09D08823FB181B6800249D4203D2C3
:10180800BA1812686B00D45A47230121F8183A6AAB
:101818003B6B9847002817DBFB6B1B18FB63002CFE
:1018280004D1B86BFFF794F9013084B221003A6A09
:10183800B86B3B6B9847002806DBFB6B01351B1820
:10184800FB6362E7F86325E6F86323E6409000103F
:1018580094A20010FF970010040000018493001068
:10186800014B18607047C046B0000020F7B504006F
:101878000D001E00019204F0D3FF030007F0CAFB1D
:10188800054F32003B5001992800A04707F0C2FBE2
:10189800385802F029F9C04608000000F7B50500DD
:1018A8000600002D01D13000FEBD2800FEF752FDD4
:1018B80001238340DA430E4F04019D433B190193F2
:1018C8001B7B0092002BECD0E3591B69002B09D13C
:1018D800009B3C191E40636804221968019806F0B1
:1018E80037FADEE7381998470028DAD1F0E7C0461A
:1018F800E4930010F0B5002289B00F490F4807F0B3
:1019080077FA0024002600270E20C0220C4D0390F1
:101918000696079728000B4B0B49049402940194F0
:101928000094920004F0B4FC0849280007F071F90B
:10193800200009B0F0BDC04659190010B0080020B9
:10194800380400205D1C001080150020C29800108B
:1019580010B5024804F092FA10BDC0464C030020AE
:10196800F7B500901F48019106F0D1F9061E35D051
:1019780000252800FEBD237B002B11D02368DB68DF
:10198800002B01D02000984763689F7123681B696A
:10199800002B1BD1636804222000196806F0D8F9CF
:1019A80001361034104B9C42E5D3009B002BE0D04D
:1019B800002DDDD02800FFF771FF019B0500002BEB
:1019C800F6D00021642004F0EBFEF1E720009847F0
:1019D8000028DFD03B00B3401D43E1E705000127A5
:1019E800024CDFE7200C0020F4930010E493001071
:1019F800014B8000C058704734940010030010B5A4
:101A08000800002B05D0044A136000F0ABFC00204E
:101A180010BD16204042FBE7B400002010B5054C6D
:101A28002378002B02D1044804F028FA01232370FC
:101A380010BDC046671500204C03002010B50400F7
:101A4800074806F064F9002C03D00121054807F087
:101A580014FA054807F0D8F9044804F00FFA10BD45
:101A6800180C00201C0C0020B00800204C0300209B
:101A780010B50021014807F00DFA10BD180C002020
:101A880070B5FFF7F5FF0500084C094B9C4200D3E1
:101A980070BD63685B79002B06D023685B68002BF8
:101AA80002D02900200098471034EEE7E493001094
:101AB800F493001010B5044C0449200005F01EFFF3
:101AC800034B1C6010BDC046D402002020940010B7
:101AD800100C00200023FA210C4A10B513700C4A90
:101AE800890013600B4A0C481360FFF787FFFFF764
:101AF800E1FF0A4B0A4918008B4200D310BD1A1A9D
:101B08005C681211013222711033F5E76815002064
:101B1800180C00201C0C0020217D0010E4930010FC
:101B2800F493001010B5044C01000022002320009B
:101B380005F005FF10BDC046D402002010B50248CC
:101B480005F097FF10BDC046D402002010B5034B26
:101B58000100186805F0E6FF10BDC046100C002013
:101B680010B5024806F017F810BDC046D402002090
:101B780070B5204B1878002826D0FFF7DFFF1E4CE1
:101B8800051E2CD11D4B1E4C1B68002B11DD07F0C8
:101B98002BF90A220023FEF7FDFB22686368801AEE
:101BA8009941002903D1FA239B00984201D9FFF7F4
:101BB80067FF22686368FA200021800012184B41F1
:101BC80022606360FFF7CCFF70BD63685B79002B10
:101BD80004D02368290020001B6898471034094B5B
:101BE8009C42F2D32800FFF7B1FF0121064807F015
:101BF80044F9C7E767150020E4930010180C00208B
:101C0800A8080020F49300101C0C002070B50E4D9D
:101C1800297800290CD10120FFF7A2FE0B4C0C4BB0
:101C28009C4206D3FFF7A4FF0028FBD101232B70A9
:101C380070BD63685B79002B03D0236820009B6824
:101C480098471034EBE7C04668150020E49300106D
:101C5800F4930010F7B500210800FFF781FE041E79
:101C68002DD0FA2700267F0007F0D4F91C4B1D4A17
:101C78001B581360002B06D01B4B1B68092B02DD79
:101C88001A4804F0FBF800230093002C07D020002A
:101C9800FFF704FE041E02D101277F423E00FFF732
:101CA80067FF0190002808D1009B114D002B13D12C
:101CB8000E483A00330004F013F9019BE4E70127CA
:101CC8007F423E00D0E72B689B69002B03D000229F
:101CD8002800110098471035064B9D42F3D3E7E7DB
:101CE80008000000140C00201C0C00204C030020ED
:101CF800E4930010F493001013B5154806F007F8A4
:101D0800144B1B78002B0AD0EFF3108472B6FFF740
:101D18002FFF002C02D162B6BFF36F8F13BD0E4B9D
:101D28001B68002BFAD0002809D1002200230B4899
:101D38000092019300230A4A05F082F8EEE7092889
:101D4800ECD1064807F060F8064804F097F8E5E794
:101D58001C0C002068150020140C0020B00800207E
:101D6800102700004C03002010B5064B04001B6828
:101D780098472100A060044805F05FFEFFF7BCFF0C
:101D880010BDC046B4000020D4020020044B054A10
:101D980000209B1ADB08994201D2C9008858704775
:101DA800E493001084930010F0B55E1C85B0B50074
:101DB80000902800072317309843033080080F004D
:101DC8000192FFF7AFFE02AB04000322581D002169
:101DD80007F07DF803AB1E70002C0BD0039B21008D
:101DE8002361002314312A1F0198C058C8500433B6
:101DF8009A42F9D1E023BA015B001A406D02054B03
:101E08002A431A4020000023009905F0C5FF05B0B9
:101E1800F0BDC046C0FF0F00F0B591B004AF3B6005
:101E28000B035B0D0D0078607A613B610C0D002B94
:101E380000D173E0BB60002604237E62BE62FE62AE
:101E480002931833FB1801930A23182200930233D4
:101E58009B18DB193200B9687869FFF7E9FA802323
:101E6800F8601B01984224D37B696C461A795B7928
:101E78008AB01B0213437A69927912041A437B6968
:101E8800DB791B06134304AA9361294B2949D361C3
:101E980080239B001384284B5161136192213300E6
:101EA800264810328901FFF7B7FFA546BD460DB099
:101EB800F0BDFB6817345B055A0D3A61204A1B0BCD
:101EC80015401D43FB68E01807239843033080083A
:101ED800FFF728FE041E15D0030010337B62FB6851
:101EE800FE62BB62042302931833FB1801930A2392
:101EF8001821009302335B18124AB9687869DB1914
:101F0800FFF796FA3B690E4A5B0215401D432A000B
:101F180020003B68796805F03FFFC7E720000723EA
:101F28001730984303308008FFF7FCFD0400E9E709
:101F3800FF070000D7980010040000018C930010E0
:101F4800FF01F0FF6F7D0010F0B587B00E9F040011
:101F5800150002910393002F15D00F9B10210593B4
:101F6800009300203B000D9AFFF786F880230600B7
:101F78001B01984208D30221174A1848184B05F04C
:101F88002BFF07B0F0BD3E00072322000C9C1D402C
:101F98001A40D2001734AD011543A0197202154337
:101FA80098430C9A0330120580081543FFF7BAFDD1
:101FB800041E09D0002F07D00F9B310000930D9A03
:101FC8003B001030FFF758F82A002000039B0299C5
:101FD80005F0E2FED5E7C046169900108C93001074
:101FE800FF0700004068002804D0044BC01AC0084E
:101FF80000B2704701204042FBE7C04684930010BE
:102008000EB417B5054C05AB04CB010020000193B5
:1020180001F086FE1EBC08BC03B018473D7E0010C8
:1020280010B5CB0604D4890603D50349FFF7E8FFAA
:1020380010BD0249FAE7C046DD9700104E9900101E
:10204800F0B591B0079317AB1B7804000D0006920A
:102058000593002B00D1B4E002261B9B1B9A1E405F
:1020680001231A400C921B9A07331A4008921B9AB4
:10207800F8331A400992002705F068FE0200B842BA
:1020880004D020008D49FFF7BBFF0700002E09D0C0
:1020980044231B9A1A4235D12A0020008849FFF7A9
:1020A800AFFF3F180C9B002B0AD0059A854B920076
:1020B800D258002A00D1844A20008449FFF7A0FFA3
:1020C800099B002B5AD0089B002B77D11D00069B3B
:1020D800002B05D01A0020007D49FFF791FF05006D
:1020E800189B7C48ED19002B00D0BEE01A9B002BF2
:1020F80074D11B9BDB0700D5DAE020001B99FFF7A2
:102108008FFFBEE00020744B1E688642C9D0734B17
:1021180028001968FEF758F8FA253100FEF790F8FC
:10212800AD0069430A9008003100FEF789F80E9166
:10213800E1210D9009010A98FEF782F80B910B989E
:102148003C21FEF741F8E1210F9009010A98FEF7BA
:102158003BF80A900E9831006843FEF735F80D9B5E
:1021680002903C210B980193FEF76AF82000009139
:102178000F9B0A9A5A49FFF743FF92E7089B099D6C
:10218800002B08D0059A574B920020005649D25888
:10219800FFF736FF0500069B002B05D01A0020002C
:1021A8004B49FFF72DFF2D18079B002B98D01A00DD
:1021B80020004E49FFF724FF2D1891E700230793CD
:1021C800E0E7079B4A48012B00D14248189B059D30
:1021D800002B4AD11A9B002B53D000251A9F102F91
:1021E80000D9102720001B99FFF71AFF0026B542D7
:1021F8004CDC199B20001A783E49FFF701FF0126A5
:1022080007231E4203D120003B49FFF7F9FEB742DE
:1022180042D9199B20009A5D3649FFF7F1FE013635
:10222800102EEDD1002620003449FFF7E9FE3300D7
:10223800199AD25C1300203B5E2B00D92E22200075
:102248002F49FFF7DDFE0136102E2AD007231E4244
:1022580003D120002849FFF7D3FE3300B742E7D85F
:1022680020002549FFF7CCFEEDE7189B2200254901
:1022780005F0DFF91A9B002BB0D1059B002B00D08D
:1022880037E7200005F0CAFD11B0F0BD20001A495B
:10229800FFF7B6FE0136AAE720001B49FFF7B0FE9C
:1022A800BDE7199BDB1919931A9BDB1B1A93E2E70D
:1022B8002000054A0549FFF7A3FE1EE756990010BE
:1022C8005A99001044940010519900107F990010F9
:1022D800829900103D7E0010280C0020240C00205C
:1022E8006399001058940010869900108C9900107A
:1022F800637E001091990010999900109B99001025
:102308009D990010293D00109799001073B5114A46
:1023180004000B000568914200D9130005216846A6
:102328000D4A04F0EFFD0600636828000B220B49F4
:102338005B6805F064FD63683200280069465B68E5
:1023480005F05DFD636828001B2205495B6805F000
:1023580056FD73BD0F270000BB9F0010BC990010ED
:10236800A0990010012310B500211C00074A9042D3
:1023780007D8074A002900D101231360054B1860CC
:1023880010BD210040085B00F1E7C04640420F0045
:10239800240C0020280C002070B50D0004004618FD
:1023A800B44201D1280070BD217803480134836804
:1023B8005B689847F4E7C046F0900010F7B5114BFA
:1023C800114C5B6A0093114B0193019B9C4202D311
:1023D8008620404212E06368009DAB420FD3256916
:1023E800002D0CD09F7803799C46664643791B02E2
:1023F8003343FF2633409F4201D1A847FEBD243412
:10240800E3E7C046500C00201004002034040020EC
:10241800F7B504000E001700144D154B9D4202D36A
:102428008620404218E0134B69685B6A99421BD3C7
:10243800AB69002B18D08A780192227994466046BD
:10244800627912020243FF2002400198904204D1AF
:102458003A00310020009847FEBD4A79012A03D18D
:102468003A003100200098472435D6E710040020B0
:1024780034040020500C0020F8B505000E001700A9
:10248800094C0A4B9C4202D3862040420AE0636909
:10249800002B01D12434F4E73A0031002800984792
:1024A8000028F7D1F8BDC0461004002034040020ED
:1024B80010B508220021024806F009FD10BDC046EB
:1024C8000B0D002030B50A4B0A4CA34201D3002063
:1024D80030BD1A7F196AD2005218914201D12433B3
:1024E800F3E708310D1F2D788542F6D10120EFE77B
:1024F8001004002034040020F7B56B460579DC1D74
:102508000E0025706B0609D02800FFF7DBFF0028B6
:1025180017D00020124B1B78834212D0114F12485B
:10252800002E0FD02B000321104A05F00FFD207854
:1025380001F0B2FFFB69002B02D021000820984768
:102548000120FEBD2B000321094A05F0FFFC20787D
:1025580005F0EFFEFB69002BF2D021000920EEE721
:102568000A0D0020500C0020D4930010029A00108D
:10257800159A001010B5044C030020000121034AED
:1025880005F0E4FC002010BDD49300102A9A001036
:1025980070B5050005F0F1FE0300040078330ED194
:1025A8002B0002210B4A0C4805F0D0FC280005F04E
:1025B800D1FC0A4A002413688343136007E000280B
:1025C800F4D02B000121064A034805F0BFFC200087
:1025D80070BDC046459A0010D4930010140D002019
:1025E800669A001010B5084C23785B069B0F0A33D7
:1025F8009B001B59181E05D02000044A044998471F
:10260800C043C00F10BDC046500C0020580C00201D
:10261800600C0020F0B585B004000191042813D0A7
:10262800012828D1204B1B78002B24D000F084FEF1
:102638001E4E1F4B9E421BD20025336A0293337FE6
:10264800AB4204D82436F4E7FFF732FFEAE7029BEF
:10265800EF00DF19387905F090FE0390387905F01E
:1026680079FC144A136883431360039B002B0FDA29
:1026780000220D4B1A700D4D0D4B9D420BD30E4B86
:102688001B6A002B02D020000199984705B0F0BDC5
:102698000135EDB2D3E7EB68002B03D02100280009
:1026A800019A98472435E7E7090D00201004002017
:1026B80034040020140D0020500C002073B56B4624
:1026C800040080781870637922791B0213436A46E4
:1026D80053800322E37813406A46137105F03AFCED
:1026E800234B06001B68234D03420DD0A47820001D
:1026F80000F008FE2000FFF74BFF06F084FA0028E0
:1027080002D1963006F017FB684605F002FE6B46CC
:1027180002001B7878321BD10221174A174805F0AE
:1027280015FC6B46187801F0DFFE0300783318D1EA
:102738006B4602211B78124A104805F007FC2B0053
:102748000120B933C43518702B6833432B6007E078
:102758000C4A0028E5D00948012105F0F7FB0020C4
:1027680076BD0028EBD06B46074A1B78F3E7C046D6
:10277800140D0020500C0020889A0010D4930010EB
:10278800CF9A0010AB9A0010EF9A0010F0B5A84F3E
:102798000600BB690C00150085B0002B18D13178F4
:1027A800C806C00E012800D183E0022800D1FEE04F
:1027B800002823D12A6873787F2934D9062B0CD0B6
:1027C800082B2BD0002B19D11370537002332CE136
:1027D80098470028E3D1002012E0F378B1781B0273
:1027E80019431B0A1A1FDEB2012A07D9072B05D87D
:1027F800CAB201927A6A1778002F03D11620404294
:1028080005B0F0BD5178B14204D10199814200D19F
:1028180003E10130D219EEE7137806E1BA373B78C5
:102828001370012301E1052B13D0092BE6D1F378AE
:10283800B2781B027C6A134338D1FFF739FE39009E
:10284800B378BA310B70FB69002BC4D003209847CA
:10285800C1E7B07801F0F6FD0028BCD0CEE7637878
:10286800042B0CD0052B14D0022B0AD1F378B278A4
:1028780065791B0213439D4203D1012001E0E378EF
:1028880001932378E4182378002BE8D10028B5D0E9
:10289800D3E7F378B2781B0213439D42F1D1019B31
:1028A800002BEED12000FFF709FFEAE7FF2501958D
:1028B800E9E72B6802933B00BA331B78002B9DD0C5
:1028C800737932791B021343DAB294467A6A019219
:1028D8001578002D00D191E750780390022803D194
:1028E8001079604500D9A5E05219F1E7029B1A70EA
:1028F8005A70039B99E001998A180192A4E00B2A67
:1029080000D07BE70024FF25039402950AE0019B91
:102918005B78042B14D0052B2ED0019B019A1B78D1
:10292800D3180193019B1B78002BF0D1FB69002B76
:1029380002D0072003999847002C00D04BE75DE7A9
:10294800019BDB780293019B32799D7873791B0296
:1029580013439D42E1D1F378B2781B021343029AE4
:102968009A42DAD1019B00240393072DD5D87B190D
:10297800BB331A700134D0E7737932791B021343E1
:102988009D42CAD1B378029A93420BD0019B9C789E
:10299800200000F0B7FC2000FFF7FAFD4342584141
:1029A800C4B2BAE70198FFF789FE0400B5E7737867
:1029B8007F2918D9002B00D020E736792D687306B7
:1029C8000AD03000FFF77EFD002800D116E7BA379D
:1029D8003B78002B00D111E72900300005F0BEFC40
:1029E80000236B70F2E6012B0AD0032B00D005E719
:1029F800F378B2781B02134300D0FFE6012105E00B
:102A0800F178B3780902194300D0F7E63000FFF7F0
:102A180073FD002800D0DEE6F0E62A60022B00D025
:102A2800FAE6D37891781B020B432360D3E6C046BD
:102A3800500C002072787F2900D860E7002A00D166
:102A480054E70A2A00D0D9E6019A1278002A00D160
:102A5800D4E601994978042900D04CE7019989788E
:102A68008B4200D047E70022072B02D8FB18BB3364
:102A78001A78029B1A70D4E6F7B505001F000426E1
:102A8800009101923B002800019A009901F054FD41
:102A9800030004000B330AD12B000221054A064823
:102AA80005F054FA013E03F0FFFD002EEAD12000A4
:102AB800FEBDC046109B0010D493001013B5154CF2
:102AC800237D002B1ED1E26801AB8020A168019212
:102AD800FFF7D2FF019AA3689B18A360E3689B1ACB
:102AE800E3600ED1002A0CD02069E388834208DD18
:102AF8002300C8331978FDF7F7FB002901D101231A
:102B0800237513BD002180200B000A00217501F0F8
:102B180013FDF6E7500C0020002330B585B0040003
:102B28000D000193984261D199423BD10B000822D4
:102B3800280002A905F03EFC002804DA802001F0F4
:102B4800ABFC05B030BD6B462D4C029ADB89226088
:102B5800039A257562602B4A2561A2606A46127A3B
:102B6800E56052B2002A10DB802B09D90121264AE0
:102B7800264805F02AF9802001F08EFC2800DEE7BF
:102B8800002B02D02361E360DBE7FFF72BFD002871
:102B9800D4D02269E388934200DD1300E360FFF795
:102BA8008DFFCEE7164D01ABEA68A968002A05DC5F
:102BB800020005F0FFFB0028C3DABFE705F0FAFBC7
:102BC800002804DA802001F067FC2000B7E7019AAA
:102BD800AB689B18AB60EB689B1AEB60B1D1094BF3
:102BE800AB60FFF7FFFC0028D9D1A7E78028A8D160
:102BF800034BDA68002AD2D11B7D002BCFD1A0E786
:102C0800500C0020880C0020379B0010D493001033
:102C1800054B064A58629A62054A0020DA62054A5C
:102C28001A63054A9A617047500C002095270010D6
:102C3800C52300108124001019240010F0B50400E9
:102C480085B04E4B0093009801225242D31703F0EF
:102C580051F84B4B4B4D1B78002B0CD002214A4AA4
:102C68004A4805F0B2F878246442009803F0BAF8AC
:102C7800200005B0F0BD6B6A002B0DD100F0CEF836
:102C8800FFF7C6FF6B6A002B06D10121404A3F4877
:102C980005F09BF80124E7E73E482C62E8616E6A7C
:102CA80001F0CAFB01F028FB041EDEDB00F064FB28
:102CB800041EDADB7378012B02D1F379002B06D1DD
:102CC8000121354A314805F080F81624CCE72A005E
:102CD8000026C832137002AA1000538016711670AD
:102CE80005F017FB0400B042BFDB802702AB1800D9
:102CF8001F7005F00EFB0400B042B6DB274B300016
:102D08001900019305F0EAFA0400B042ADDB38007F
:102D1800019905F0E3FA0400B042A6DB204E214BEE
:102D28009E4219D3002001F0DFFB041E9DDB2E001C
:102D38000127C436336880203B43336001F0D4FB5D
:102D4800041E00DA91E7802332685B021343B8352A
:102D5800002433602F7088E70024376A337FA3424A
:102D680001D82436DBE7E300FB181879196805F069
:102D7800B5FA00288ED10134E4B2EFE71003002041
:102D8800080D0020500C0020509B0010D493001018
:102D9800739B00101D260010989B0010212B00101B
:102DA8001004002034040020F0B58BB0112219491A
:102DB80005A806F083F81022002101A806F087F87C
:102DC800154C12220021200006F081F8102101A8DC
:102DD80005F047FC00281ADD082800DA0820083822
:102DE80001AB1B180F2021000022844614276D46D2
:102DF800985CED190609AE5D654628406D46ED19EB
:102E0800285C01320E7048700231082AEED1200089
:102E18000BB0F0BDD29B00106B150020F0B58B4BAA
:102E28008BB01B7800AF7B61002B03D08848BD4670
:102E38000BB0F0BD864C874BBB6100231D00FB60C7
:102E48003B61FB612378002B07D1834B02349C4202
:102E5800F1D101227D4B1A70E8E7607805281FD868
:102E6800FDF7A8F9AF03F1AF215320227B69B91808
:102E78000B70402324217B847B6979180B70B81868
:102E880001F0EEFA002809D008237B841833F818DB
:102E980001F0E6FA002801D07B697B847B8CE37122
:102EA8002378E418CEE7E378002BF9D1A378002B38
:102EB80021D03B690133DBB23B61F1E76A68944298
:102EC8001CD024359D42F9D36D4688B06A46634BC1
:102ED8009461536103231361C221002360481032B7
:102EE8004901FEF799FFAD465D4801215D4A04F0AE
:102EF8006CFF00209BE75C4D5C4BE3E7AB68002B65
:102F0800D7D0200039699847D3E7002D57D1584AC0
:102F18000121534804F059FFE6E7BB682A6ADB0041
:102F2800D3187B60A2781B799A423FD101260322ED
:102F3800F3B23B60E37813402132BA181370637917
:102F480022791B0213437B84A3787F2B24D9330077
:102F5800012210339A401300BA691A4223D1802300
:102F68003A6813432022B91808000B7001F078FA68
:102F7800002818D12023FB181B787A68A3701371D6
:102F88005BB2002B02DA3E681036F6B20123B3407A
:102F9800BA691A43BA6183E70123B340BA691A428E
:102FA80001D1F3B2DEE70136102EC0D1BB68013380
:102FB800BB602B7FBA689A42AFD32E4AA8E700239A
:102FC800F6E7FB68032B24D1FFF7EEFEB860002874
:102FD80012D0FDF7BDFD061E0ED0102804D0022128
:102FE800254A1F4804F0F1FE3200A01C102E00DD17
:102FF8001022B96805F062FF2378E2185B08E3182D
:10300800911E121B032A0CD5FB680133DBB2FB604F
:1030180046E7FB68002BEFD1FB69002B08D1174A64
:1030280076E77A69013B4A705A780A700A00E7E73E
:10303800FB69FA69E31A93709BB21B0AD3701300F9
:103048003A691A71E0E7FC612AE7C0466A15002070
:103058005C030020010001000F040020E39B001026
:10306800CC930010C99C00101004002034040020E8
:10307800039C0010449C0010619C0010AC9C001044
:10308800094A0023110010B51478844205D1546808
:10309800002C02D09B01C81810BD01334032042B0C
:1030A800F2D10020F8E7C0461C0D0020F0B504005E
:1030B8002C3C63680600257887B0103327D1E16B74
:1030C800E2688B0735D5002A07D10423194202D0BC
:1030D800002363601BE00B43E36305AB2800A16892
:1030E800FFF7CAFC031E08D00121294A2948009588
:1030F80004F07AFE16235B42EBE7059AA3689B1857
:10310800A360E3689B1AE36023699B1823616368E3
:1031180010330CD0236967690393A369029305F000
:1031280072FD002828D031001B4805F054FD07B077
:10313800F0BD05AB2800A16801F060FA031ED3D1E9
:10314800059FA368DB19A360E368DB1BE3602369C1
:10315800DB192361002FBBD0280005F03EF90100E0
:103168003800FDF76DF80029B2D1E368002BAFD025
:10317800280001F0B9FACAE760613000103802F09F
:103188007DFE002FD3D02800029A0399B847CEE7D6
:10319800F79C0010DC930010E80800204B1E73B564
:1031A80006000D00012B14D8FFF76AFF041E11D189
:1031B800012D0ED1694601AB01223000033101F027
:1031C8001DFA019B002BF5D101210A4A0A4804F097
:1031D800FCFD73BD05F017FD21002C31002801D03E
:1031E800012D03D10800FFF761FFF2E7034805F05E
:1031F800F2FCEEE7149D0010DC930010E8080020B4
:10320800F0B587B0060005910292039304F0E7FE3B
:10321800002865D1EFF31083049372B60700324B90
:10322800019300220023019802F05AFE002810D1D1
:103238002E4BBA019C186568290010311FD1012155
:1032480033002B4A2B4804F0C7FD019802F016FE04
:103258000CE0019B013740330193042FE1D1012198
:103268000C25254A234804F0B0FD6D42049B002B31
:1032780002D162B6BFF36F8F280007B0F0BDD654F5
:10328800059B2061A360029B3000E3600C9B636197
:10329800039BE3630D9BA36110235B42636005F00E
:1032A8009CF800280CD0300005F097F8010002982F
:1032B800FCF7C6FF002903D00423E26B1343E36342
:1032C800039B9B0707D50D4BB9010D48C91805F09D
:1032D80082FC0025CAE7300001F006FA0500C5E7C0
:1032E80010256D42C8E7C046380D00201C0D00208F
:1032F800499D0010DC9300102E9D0010480D002001
:10330800E808002010B5EFF3108472B6FFF7B8FE96
:10331800011E09D04368103306D18C235B424360F9
:103328002C31044805F057FC002C02D162B6BFF3DB
:103338006F8F10BDE808002070B500250C4CEFF326
:10334800108672B66368103307D18C2321005B4264
:10335800084863602C3105F03EFC002E02D162B6AD
:10336800BFF36F8F01354034042DE8D170BDC046DE
:103378001C0D0020E808002070B500250126084C27
:103388002000084905F00FFC2000320031001038F9
:10339800013505F0CCFB4034042DF1D1002070BD7F
:1033A800480D0020B530001010B5016901220B004E
:1033B8004B331A700B68002B08D00B0049331B786D
:1033C800002B03D00248083105F005FC10BDC046AB
:1033D800E808002010B5036901211A004A3211706B
:1033E8001A68002A08D0190048331B780831002BC6
:1033F80002D0024805F0EFFB10BDC046E8080020E7
:1034080070B50569EFF3108672B62B009033186813
:1034180004F028FC0400002E02D162B6BFF36F8FBF
:10342800002C06D02900002200230348183102F09E
:10343800CDFE200070BDC046E8080020130070B51E
:1034480014000D001100012248331A702368083156
:10345800002B07D023004A331B78002B02D00D48DD
:1034680005F0B9FB230090331B68DA885B899A4220
:1034780006D1002D0DD121001831FA22920004E066
:10348800210000221831002DF7D00023014802F056
:103498009DFE70BDE808002070B506000D0001799A
:1034A8001248140004F079FD00281BD03278737894
:1034B8007F2A10D8202B03D0222B08D0862012E098
:1034C80007222168103805F0F9FC002070BDB37898
:1034D80009380370F9E7212BF0D110381A3B206026
:1034E8002B60F2E713204042F0E7C046200E002090
:1034F800054B010010B5180004F05CFD002802D04F
:1035080001230738037010BD200E0020030070B59A
:103518000025040048331D8007220949943005F02E
:10352800CDFC230020009C331D70013B1D7003332C
:1035380029001D809D7040224C3005F0C8FC70BDEC
:10354800F493001010B5046900222300A433186016
:103558005A600B4A0433516800290DD15360136037
:1035680020000849083005F01EFB200006491830E5
:1035780005F03DFB002010BD0B605360F0E7C0462E
:10358800200E0020178000105136001030B50B00B7
:103598000E4985B0019180218902029101A90B8110
:1035A8000023046942689D342370126A084D10791B
:1035B8000A22FFF761FA2378002B05D10120013D8B
:1035C80005F058FA002DF6D105B030BDA120000055
:1035D800A186010073B56B460469DD1D2300002236
:1035E80048331A702970EFF3108672B623009033AF
:1035F80001222900186804F035FB002E02D162B6BA
:10360800BFF36F8F01280DD005F0FDFA002804D113
:103618002300A1331B78002B0CD10122002108487C
:1036280005F00BFC21000A2200231831054802F09E
:10363800CDFD73BD00210A2003F0B2F8D3E7C046E0
:103648001C0E0020E80800207FB503008C331B689F
:1036580005005B681B6A1E7D300004F0C0FC002872
:103668002FD12B0086331B78002B2AD0A86F4289D4
:10367800C3889B1A80229BB2D200934200D91300C0
:10368800010003AA0A3104F09DFA002819D02B0082
:10369800002230331A703F2303405A425341C41A60
:1036A8002B00183B0193074B22000399009330002D
:1036B8000223FFF7A5FDA86F220001000A3104F0DC
:1036C800B8FA7FBD4534001073B505001400002911
:1036D80025DD16000A0021008C3630684C3104F0D4
:1036E800C1FA2300012249331A702368002B09D03C
:1036F80023004B331B78002B04D0210010480831DD
:1037080005F069FA32689388918912695B1A9BB24D
:10371800D31A3F2B03D80123A034237073BD230091
:103728009E331B78002BF9D02100064B40220093D2
:10373800280001234C310194FFF762FDEEE7C046F3
:10374800E8080020D13600101D4BF7B50F00010026
:10375800180004F017FC041E23D005000368781E27
:103768005E68A43D05281CD8FCF724FD1C1B031C1F
:103778002024A31F1978002913D101221A70336A53
:103788002A00187B5C3CFFF79FFF2178002908D1AD
:10379800336A0A00187D0B4B019500930223FFF74B
:1037A8002FFDF7BD2800FFF7B1FEFAE70123053C1E
:1037B8002370F6E7053C2378002BF2D00023F7E7C7
:1037C800200E00204534001037B501230025802243
:1037D800064C0749200000955B42D20002F0B2FC7B
:1037E8002000044905F015FA28003EBDE80800202D
:1037F80080180020899D001010B5034A0348002155
:10380800121A04F024FD10BD801500203804002091
:103818000648074A10B5121A064904F01CFD064A64
:1038280006480749121A04F016FD10BD00000020D2
:103838003404002094A200100000002000000020A2
:1038480094A20010F0B585B000AF0C1EB86036D059
:103858006E468AB06D4609686268A3682B620523C4
:103868002048A9616861EA612B61A1212A001E48EC
:103878001032002389017A60F860FEF7CDFAB54668
:10388800E168AD46226963692B6205231748A9617F
:103898006861EA612B61A12100237A68F8688901CF
:1038A800FEF7BAFAB546E3690121114AF86804F04F
:1038B80093FAA36901210F4AF86804F08DFABB68EE
:1038C800012B07D1EFF305830B4A0748B968103B72
:1038D80004F082FA2100B86801F0D6FFBD4605B0B1
:1038E800F0BDC046929D0010A4930010C19D001029
:1038F800F09D0010FF9D00102D9E001030BFFDE7C9
:10390800F7B50A4B0A4D0600EF18CC1B2A00200019
:103918000849019305F0D2FA60190021019A05F0CF
:10392800D6FA3800083C74660830FEBD0400000072
:1039380000000000F4930010054B5A699B689A42F6
:1039480005D08023034A5B0551680B4353607047D9
:103958001015002000ED00E0F0B53E4B8BB05B6821
:1039680000AF7B60DB05DB0D04003B6062B6BFF394
:103978006F8F394E130EFF2B08D1F33B1340082BE2
:103988003DD101213000354A04F01FFA00252C00F2
:103998003B68032B39D1324A0121300004F015FA73
:1039A800A369304A934202D32F4A934205D32F4A40
:1039B800934249D32E4A934246D2023B1A882D4B52
:1039C8009A4241D12368012130002B4A04F004FABD
:1039D800266808232022F818210005F06FFA7B6A70
:1039E800002D33D0DA0502D1244A13437B62082321
:1039F8003000F918FFF726FFBD460BB0F0BD0125D2
:103A08001207C5D50C000025C2E7F82279685200D4
:103A18001B4B114200D01B4B6A468AB07A606A463B
:103A280093613B681849103BD36180239B00138442
:103A3800164B516113619121002330001032890126
:103A4800FEF7EAF97B689D460026C2E75B0A5B023F
:103A5800CCE7C04600ED00E0A49300106E9E001075
:103A6800999E0010A8010010389000100000002056
:103A78000000002002DF0000B09E0010FF010000DF
:103A8800409E0010559E0010CC9E001004000001BE
:103A98000821024A53698B435361704700ED00E0E7
:103AA800EFF30880EFF3098101B57246FFF754FF81
:103AB80001BDC046094880F3088872B6084809491C
:103AC800401880F30988EFF314800221084380F33B
:103AD8001488BFF36F8F04F0D4FB0000802D002002
:103AE800802000200008000010B50A4B9B68834224
:103AF8000DD1EFF30583002B09D08022064B520528
:103B080059680A435A605A6A04490A405A6202F0DC
:103B18008DFE10BD1015002000ED00E0FF7FFFFFB7
:103B280015498A6815481044EFF3098CF0C04346DC
:103B38004C4655465E466746F8C072B6104F114E61
:103B48004A698A603E60104C141920680F4C206046
:103B5800906E00239366002800D162B6074C1019B6
:103B68001030F8C89846A146AA46B346BC46243841
:103B7800F0C88CF309887047101500203000000049
:103B880004ED00E00000000864000000280E00209A
:103B980004207146014202D0EFF3098001D1EFF30E
:103BA80008808169023909780229FFD001B5724677
:103BB80004F055FB01BDC04643B2000605D41F22E0
:103BC8001A4001239340014A1360704700E100E066
:103BD80043B2000609D41F221A4001239340034A26
:103BE800D367BFF34F8FBFF36F8F704704E100E0D7
:103BF80030B5FF2503220B00290040B20240D20055
:103C080091409B012B40C943934000280ADBC02404
:103C18000A4A800880008018A40002590A40134309
:103C2800035130BD0F2210400838054A8008800033
:103C38008018C26911401943C161F2E700E100E050
:103C480000ED00E0FF22044B9343044A9360BFF366
:103C58004F8FBFF36F8F70470001001000ED00E039
:103C680010B5203A1360029B01245360039B064958
:103C78009360049BA143D36080235B04D36100233A
:103C880091610265836610BD7518001070B50B4B05
:103C980015009860426E0A4B0E001A602C1C86F3C1
:103CA80009880020034B9847201C0021002200238C
:103CB800014C2047A782001075180010101500202D
:103CC800280E00201022014B1A61704700ED00E019
:103CD800F0B5C02400220326FF25A40010002F0001
:103CE8003040C0008740054993089B005B1819596C
:103CF8000132B94319511A2AF0D1F0BD00E100E0B0
:103D080010B5EFF30583054A103BDB00D11849686D
:103D180098588847FFF710FE10BDC0466091001004
:103D2800F0B587B007000E00140000211022684685
:103D38001D0005F0CCF86A4602239370054B2A0053
:103D48002100684601930497059603F005F907B02A
:103D5800F0BDC046C782001010B5024B1B689847DB
:103D6800002010BD2C0E0020034B044A18600223CB
:103D780091780B43937070472C0E002000010020AF
:103D880010B5044803F0B0FC62B6BFF36F8F04238C
:103D9800181C02DFDF9E0010072310B50449054AEE
:103DA80099430548521A03F0EEFB002010BDC046A7
:103DB800FF39002000200420300E0020020080215E
:103DC80003008A4300200F2A08DC5AB20448002A5C
:103DD80000DA04482C228B435343C0187047C0466E
:103DE800400E00200011002070B50400FFF7E6FF28
:103DF800036A05001B685B0526D566B201F04AFC1C
:103E0800012816D9114B64001C40F343DB0F1C43F7
:103E18000123A3400E4A0F4913664A6E1A409A427C
:103E2800FBD1296A0C480A6802400A600B4A1366EB
:103E380004E02A6A084913680B401360002E03DA6D
:103E480028000C3002F01AF870BDC046FEFEFFFFD5
:103E58000020115000001150FFFBFFFF00301150EF
:103E6800F0B589B00E2252420024039200260027A2
:103E78008022104D0696079728000F4B0F4904948F
:103E8800029401940094D20002F002FA0C4928002E
:103E980004F0BFFE0B4883681B68A34205D00721C6
:103EA8009847A04204DC09B0F0BD58204042FAE728
:103EB8002000F8E778090020113F0010801C00203E
:103EC800E89E0010B890001010B50100024C2000C8
:103ED80004F01CFE10BDC046240300201FB50024BA
:103EE8006B461C71062302936B4600221C7301A8C3
:103EF8000023FFF7E9FF024B024A9C541FBDC0464E
:103F08003C0E00208B050000F0B580250126764286
:103F1800F71785B06D0011483B0001A9320001F088
:103F28008DFE6B461979002910D01C7B2000FFF705
:103F380045FF0299002902D1094B0A4A9D5243685C
:103F4800002BE8D02000C9B29847E4E7044B1B686F
:103F5800002BE0D00298C0B29847DCE72403002089
:103F68003C0E00208405000010B50300044C01211C
:103F78002000044A03F030FF1620404210BDC0461E
:103F8800C4930010F09E0010F8B506000F0015004D
:103F9800FFF714FF036A04001B685B0505D50221BF
:103FA8003300184A184803F017FF76B2002E23DAB8
:103FB800402D24D8002F19D180231B021D43210036
:103FC8002831087803005A1E9341012242400A70A2
:103FD800226A5B032B431360C046C046C04680225A
:103FE8000020216AD20013430B60F8BD2A00390073
:103FF800606A04F063FFDFE70023A360DFE70C20BB
:104008004042F2E7029F0010C4930010F0B5A54BA0
:1040180089B01F68A44B1F4206D0A44BA44A9B5CDE
:10402800002B01D0FFF75AFF10233C001C401F4211
:104038000BD0002501269F4B9B6D0193019B002B04
:1040480002D0202D00D0F2E0102480235B021F4212
:1040580026D080221C43984B92021A658020FFF7D5
:10406800C3FE924D6B6A1B685B0507D50020FFF7FE
:10407800BBFE0221914A924804F02CF90123914A8F
:1040880002A9AB54BB229200AB5400222C350A750E
:104098002B70069205A80B7300220023FFF714FF6C
:1040A80080239B011F4219D01C4380230021824A90
:1040B80002A85B021365017201707E49086D1842FF
:1040C80000D0E5E0042003907F480068002800D075
:1040D800E1E00022002302A8FFF7F6FE3B0511D518
:1040E8000121754B784A19651268002A07D0714A70
:1040F800106D80225202084200D0744BDA6480238B
:104108001B011C4380256D012F4223D0704A0221D8
:104118006B4804F0DFF880222C430025B026664B5C
:1041280012031A65634BB6001D606A4B0193019B2D
:1041380058192C3501F0A2FEB542F8D1002302AA85
:1041480013720122039202AA137002A8002200230C
:10415800FFF7BAFE8023DB011F420FD010221C4359
:10416800554B05A81A65002302AA13730522069267
:1041780002AA137500220023FFF7A6FE80231B0264
:104188001F4206D080221C434B4B12011A65FFF7D1
:10419800A5FE20252F4209D04F4A0221484804F0A5
:1041A80099F88022444B12061A652C4340252F4269
:1041B80009D04A4A0221424804F08CF880223E4B3A
:1041C80012051A652C4380252F4209D0444A022142
:1041D8003B4804F07FF88022374BD2041A652C4301
:1041E80080256D002F4209D03E4A0221344804F050
:1041F80071F88022304B92041A652C438025AD005B
:104208002F4209D0384A01212D4804F063F8802252
:10421800294B52041A652C43A74206D03B000121C2
:10422800324A2748634003F0D7FD09B0F0BD019B2F
:1042380033422AD0204B6C109E650123E4B21D4204
:1042480016D1002D09D1194B294A995C002904D0AF
:104258009D54284A9B5C174A136080235B421C4389
:10426800E4B22000FFF7AAFD0C3001F007FE02239C
:10427800012102AA1475117305A8069300220023D0
:10428800FFF722FE019BB343019376000135D5E683
:10429800022303931DE7096DC90700D519E7D36405
:1042A80017E7C04698001150100001003C0E00208E
:1042B8008B05000000001150003011501E9F0010A7
:1042C800C493001084050000C8130020002011507A
:1042D8004B9F00100C110020559F00105E9F00108E
:1042E800699F0010759F0010859F00108F9F001018
:1042F800860500008A050000F0B53F4E85B030689D
:10430800002816D0002103AA04F0C3F9041E07DB15
:10431800039B00221979186804F0CEF9041E08D00E
:1043280001212300354A364803F056FD200005B028
:10433800F0BD8023334A5B041360334A334913606A
:104348001D000A689543FBD1314C9C2229002000AE
:1043580004F0BDFD802229002E48520104F0B7FD6B
:10436800092363673368002B01D10C33A36701234A
:10437800236480239B05E364274A284B284E1A6050
:104388000023284D284F01933B1F77626B61019BE7
:10439800002B2AD03B00803B3362043B2B61019BFE
:1043A800224ADB019A18B262214A9B18AB610122AA
:1043B8002800110004F0BBFB019B0837013301936F
:1043C8002C362C35102BDFD1236DDB0703D580224B
:1043D800184B5202DA64002203210520FFF708FC7B
:1043E8000520FFF7E9FB0024A0E7BA21104B0C4A8F
:1043F800890093625350DAE7C8130020A39F001086
:10440800C493001000E0004000F0004008C00040E5
:104418000000115000001050F0FB010090001150F6
:104428003C0E00200C110020840010504001105058
:104438000001105000201150014B18607047C04611
:104448003C0E00200121034B034A9954034A985417
:10445800002070473C0E0020860500008A050000F9
:1044680010B502790378002A09D15A0607D0074AFD
:104478000748012103F02EFF0120404210BD7022A1
:1044880000201342FAD0034AF2E7C046BE9F00104C
:10449800C4930010DD9F001070B50400FFF78EFC78
:1044A800051E1CD080231B01620613D164B20D4A7D
:1044B800002C07DB02219166026A136001230020A9
:1044C800EB7070BD01219166026A13600020FFF74E
:1044D8008BFCF3E7026A1360802CEFD1F6E7162015
:1044E8004042EEE70020115010B50400FFF766FCCB
:1044F80000281BD00023026A1360020028321370C0
:10450800C169994209D0426A0A4B5340827892069F
:104518001343A022120613430B60002063B28342A8
:1045280003DD4021200003F0E5FE10BD16204042C7
:10453800FBE7C04600001050F7B5050014001E0048
:104548000191FFF73BFC002802D06BB2002B08DB7F
:1045580001212B00254A264803F03EFC16256D4212
:104568000AE0802D0DD1234B234A9B5C002B05D0FC
:10457800002E00D0346000252800FEBD4027BC4234
:1045880003D80788A74200D927000C30040000226E
:10459800002301F0A5FC002825D104F034FB0028F5
:1045A80002D10530FFF714FB28003A000199FFF704
:1045B800EBFC051E0ADB04F026FB002802D10530BF
:1045C800FFF7FAFA002ED7D03760D5E7200001F0C0
:1045D80055FC04F018FB002801D00525BFE705208D
:1045E800FFF7EAFAF9E70B25B9E7C046F09E001095
:1045F800C49300103C0E002084050000F0B585B07F
:104608000500140002910393FFF7D8FB061E09D199
:104618002D4A2E482B00012103F0DEFB16204042D4
:1046280005B0F0BD6BB2002B01DA294AF1E7002D85
:104638002BD1284B284A9B5C002B26D0082C16D15E
:10464800029B2700002B35D0224B234A9B5C002B72
:1046580028D0220021492700029804F02FFCB368D3
:104668001B19B360039B002B2AD10020D8E708232D
:1046780002211B4A1548009403F0B6FB029B002B4D
:1046880015D0082CE0D90824DEE7280003F08AFEBC
:10469800B768029BC71B002B0AD0BC4200D93C005C
:1046A800002DD1D0716AB3682200C918D3E7082752
:1046B800002CD7D001210B4A044803F00BFED1E7A8
:1046C800039B1F60D1E7C04601A00010C4930010EF
:1046D80015A000103C0E00208505000000001050B9
:1046E80036A0001085A00010F8B50400FFF766FB9F
:1046F800061E02D063B2002B08DA1C4823000121F1
:104708001B4A03F069FB16204042F8BD002C26D155
:10471800184D194B194FEA5C002A0ED0FA88002A66
:1047280008D0B122D200AC52EC544021200003F052
:10473800E1FDEAE7EA540020E7E7200003F032FE53
:104748003B787F2BF7D8B122D200B168AB5AFE88EC
:104758005B18B342EFD28842EDD1AB52E5E72000B7
:1047680003F020FEB3688342E5D1DEE7C49300106E
:1047780095A000103C0E0020850500000000105098
:1047880049B24368102916DC0A290BD00B2910D02E
:104798000C224A431B689B18802292019B18802296
:1047A800120103E09B68054A9B182D2200201A601D
:1047B8007047DB68F7E716204042F9E7043000004D
:1047C80049B24368102916DC0A290BD00B2910D0EE
:1047D8000C224A431B689B18C02292019B18802216
:1047E800120103E09B68054A9B182D2200201A60DD
:1047F8007047DB68F7E716204042F9E7042000001D
:10480800802310B5084A5B041360084A94691C4267
:1048180002D01620404210BD016092691000184075
:104828001A42F8D0F5E7C0461830064000000640A6
:10483800030010B508000B2907D8FBF7BBFC0909D2
:1048480009091220282C2C2C33330120404210BD9A
:104858001A680C234B439B58134ADB051B0FD05691
:10486800F5E7124A0E201368116803220C00144061
:104878001142ECD00E4A0238022CEED1E7E70D4A7D
:104888000420136812689207E1D00B4AE5E70B4B46
:104898000B4A1B68E1E70C234B430A4A9B181B6829
:1048A800094ADAE70C20D2E7CCA00010308000409B
:1048B800C9A000103C800040C3A000104880004000
:1048C800BCA0001000800040B6A00010F8B506009B
:1048D8000C00756821002800376903F088FD00285E
:1048E80000D16DE00E2C00D96AE02000FBF762FCD5
:1048F8000808080808082A08080830306A626600AC
:10490800210028002F68FFF793FF01003000FFF710
:10491800DDFF0C236343FB185E68051C5868C0B2B2
:10492800FCF7C2F82849FBF7C9FE041C300AFCF75B
:10493800BBF8011C201CFBF74DFD011C281CFBF7D4
:10494800BDFEF8BD06212800FFF772FF0400C0E78E
:104958000A2C2DD1AF6821002800FFF769FF01005C
:104968003000FFF7B3FF061CB868FCF79DF8311C50
:10497800FBF786FF061C3F203D68FC682840FCF7D3
:1049880093F8011C301CFBF799FE0725061C200C28
:104998002840FCF789F8011C301CFBF78FFEFF68E4
:1049A800041C380B2840FCF77FF8011C201CC6E7C4
:1049B800EF68D0E73868FCF777F8C2E77868FAE775
:1049C8000020BEE70148BCE700007F43001B374BCF
:1049D800F0B544688FB0A36822220393E3685F4967
:1049E80005A804932568276904F068FA5C4B5D4ABA
:1049F8001A605D4B5D4A13601E005D4A126896435B
:104A0800FAD10C21300000F03DFEAE6700F026FE22
:104A18000321584BDA6B8A43DA635A6C012AFCD1BA
:104A280003211A6B8A431A639A6B012AFCD1E26943
:104A3800514B03985A43636A0093236AA16900F0B3
:104A4800A7FDE26A4C4B04985A43636B0093A16A32
:104A5800236B00F09DFD112105A803F012FD7300E2
:104A680005AA9956C8B2092867D90136112EF6D178
:104A7800C0239B01EA1880231B0113603F4A3800BA
:104A8800AA1813603E4A1430AA1813603D4AAD189C
:104A98002B602300AA25D83319682D012943FFF775
:104AA800AFFE002855DB2300DC331B68364938008D
:104AB8001943FFF7A5FE00284BDB2300E0331B68F2
:104AC800002B48D029001F2B00D859193800103066
:104AD800FFF796FE00283CDB2600E43631682B4DB4
:104AE80089B22943381DFFF78BFE002831DB3800D7
:104AF80031680830090C2943FFF782FE002828DBBB
:104B0800234B1A4A13601A4B1B68DB43DB01DD0990
:104B1800002BF8D12900606902AA03F0BAFD002829
:104B280007DB029B2A001979186803F0C5FD0028E5
:104B380001DA831C0DD100200BE0090161180B6C10
:104B480000934B6CCA6B896B03F03AFF00288CD139
:104B580016380FB0F0BD0F49B8E7C046FB930010F8
:104B680000E00040BFCDFBFEFE7F3C0000F00040AF
:104B780008C0004000800040001BB7000C30000057
:104B8800183000002430000000B0FA0000009696AB
:104B9800FFFFFF01A10A000010B5084803F091FFCC
:104BA800002808D0064C2000FFF7DEF82000FCF7AC
:104BB80057FE002010BD13204042FBE7F090001084
:104BC800CD4B001070B50400074D0A2804D1AB681E
:104BD8000D2128005B689847AB6828005B68E1B244
:104BE8009847200070BDC046F0900010D0231B06E7
:104BF8001B685A4253412F225B429343064A9B1833
:104C08001A001068002804D10432D11A0C29F8D9E6
:104C180070470120FCE7C04650410140F7B50369E1
:104C280007000193D0231B061C68002563425C41E2
:104C38002F2364429C43184BE418EB081A000832EF
:104C48009200115907222A409200D1400F200142B8
:104C580003D101351E2DF0D1F7BD0F2191403C3312
:104C68000E4A9B009950019B59680029F1D00123F5
:104C7800AB400E6800930029EBD08B68009A00982F
:104C88001A40034202D038004B689847331E00D0C0
:104C9800336831001E00EEE730410140004001401A
:104CA800F8B50D00141E066910D11100280000F097
:104CB80035FD284BAD00EB181A6880235340C022FD
:104CC8001340254AAD182B600020F8BD0127520972
:104CD800210928003A40394000F020FD052128002C
:104CE80000F004FD802321005B0219401C421AD009
:104CF800D023AF401B069F62A303E5D50120030024
:104D0800F268AB40A10719D51A43F260D022316985
:104D1800120665070BD519433161A40C936104424F
:104D28000AD05362D0E7280000F090FDE4E79943E9
:104D38003161E40C5361F2E79362C5E79A43F2608C
:104D4800D0221206210301D55361EAE76403E8D5AE
:104D58009361E6E704C0014004D00140F7B5456817
:104D68000021E86901AA03F094FC041E07DB019BFB
:104D780000221979186803F09FFC041E07D0244804
:104D880023000121234A03F027F82000FEBDA86A6A
:104D9800E96A83681B68002B36D098470028F5DB42
:104DA800286A696A8368DB68002B2DD09847002839
:104DB800ECDB2A1D20002500102614234343164946
:104DC800164C59181C190D602560154C154F1C19E7
:104DD8002560154C1C1927604E600D601478002C56
:104DE8000DD14E600124096801308C4321000F4C1D
:104DF80003321B1919600828DFD10020C6E757784D
:104E080024013C434C60EDE758204042BEE7C046D1
:104E1800AC930010FDA000100000054008000540FC
:104E28000C000540FFFF0000100005400010054081
:104E3800F0B587B01D000CAB1B88012405930B004F
:104E48002340466802924F0803930F2900D974E063
:104E580003237B43F3181A7901925A79019B002B9B
:104E68000BD080211620029B4902013B40428B4215
:104E78005BD2019C019216E0640021000298FBF7C6
:104E8800A3F903008022013B049052029342F3D21B
:104E980080235B009C4250DC28002100FBF794F93A
:104EA8000500049B029380235B029D4245D2142295
:104EB80001217A43336805989B181E681B680840CF
:104EC8009C46039B002B32D0B608030030000840F4
:104ED8001B4EDB0091190968800003434B400C21ED
:104EE8000B40184951180B6014217943029B89190A
:104EF800013B9BB20B61144BD218039B002B1AD0B9
:104F0800124B2D041168240169400B40802149018E
:104F180052181360FF231B011C40019B00201C43F7
:104F280014237B43064A9B185C6007B0F0BD6346B8
:104F3800DB080B40CCE7064BE4E716204042F4E7D9
:104F480000000540001005400C0005400000FFFF70
:104F5800FFFF000001208840034B1B680340591ED7
:104F68008B4100201370704700C0004001238B4024
:104F7800014A00201360704700E0004001238B4085
:104F8800034A0449136018000A689043FBD170472C
:104F980000F0004008C0004001238B40044A054946
:104FA8001360054A136018000A689043FBD17047E4
:104FB80000E0004008C0004000F0004010B5436821
:104FC80000691B68007A1A6B002803D10748024061
:104FD800824208D19C69102220001040144202D15C
:104FE8001B680B7010BD01204042FBE70102000066
:104FF800436803491A68936B0B4093637047C04634
:105008007FF8FFFFF0B5436889B006930369019103
:105018000593069B07921B6805000493059B1B7A62
:10502800002B00D090E0002A0BD001221021049B15
:105038001B6B9343049A136343681A68D36A8B43C0
:10504800D362049BDC6AEE239C43019B1B79012BF2
:1050580006D0022B16D0002B04D0862040425CE0FC
:1050680002231C43019B5B79012B03D0032BF4D152
:1050780005331C43019B98790328EED8FBF79AF86F
:10508800060413150623ECE720231C43019BDB7958
:10509800002B0CD0012BE0D16B681A68C023116B70
:1050A8001B020B4308E04023EFE76023EDE76B6842
:1050B80027491A68136B0B401363059B40267642F9
:1050C800F717D868019B810E1A6880010023120126
:1050D800FBF760F903910290029A039BB6185F41AF
:1050E80069680968002F2DD11A4886422AD8039B7F
:1050F800029A9806029B9B0903434B623F231A407E
:105108008A62BFF35F8FCB6A0822CB62049B019946
:105118000598DC6203F0D2FE3800079B002B0FD005
:10512800069B1B7F002B05D16B681A681023D16A78
:105138000B43D3626B681A680123116B0B4313632B
:1051480009B0F0BD162089E786204042F8E7C0463E
:10515800FF3FFFFF80FF3F00F0B545680400076987
:10516800A8682E6885B0002859D12869002860D120
:105178003B7A0193002B31D11900686803AA03F028
:1051880088FA002853DB039B019A1979186803F001
:1051980093FA00284BD16B6A002B01D02000984766
:1051A800012163681A68136B8B43136363680F31BB
:1051B8001A68D36A8B43D3622B6A002B4AD1002228
:1051C80039002000FFF71EFF102373632A7F002A8F
:1051D80004D162681268D16A0B43D3620023B363B7
:1051E800244B73643B7A002B0DD1B364BFF36F8FEC
:1051F8000222336B93433363C023326B9B00134308
:105208003363BFF36F8FAB69002B03D0200098473F
:1052180001233B743B7A002B22D0002007E0E96889
:105228008368DB68002B22D0984700289DD005B002
:10523800F0BD836869691B68002B00D098473A0065
:105248002869696983680C32DB68002B00D18FE715
:1052580098478DE72000F96898470028AFD0E6E71F
:1052680063681A680123116B0B431363D5E7582051
:105278004042DCE7FF07000070B580251049114B5C
:105288008C681B680E6810488A686D02002C08D16B
:10529800002A11D11A002E4209D100681818801A64
:1052A80070BD002A0AD02E4201D1A242F5D9046865
:1052B800E41804600968F0E71C00F4E71A00F2E754
:1052C80010E000E0E4130020E01300200020084A6A
:1052D800136A1B021B0A1362064B074A1A60074B24
:1052E800074A1860074B5A60072298601A6070478F
:1052F80000ED00E0E4130020D4300000E0130020AB
:10530800D330000010E000E0F8B50024FFF7B4FF48
:105318000F4E230031680F4D0A002868696880180D
:105328005941286069600C4D34600C492E686F68DB
:10533800801BFAF749FF0949230041430A009219E3
:105348007B412A606B6001F077FCFEF7F5FAF8BD47
:10535800E0130020F0090020E8090020D430000004
:10536800F0B53B4B3B4D87B000295FD0421C08D1BC
:1053780001212A688A432A60FF2212061A6007B0B0
:10538800F0BD1B68039300230293012853DCEFF35D
:105398001083059372B6FFF76FFF00221100AB6808
:1053A80004932D4B1E685F6836184F413000390052
:1053B80018605960294B009601971A60284B1C68A1
:1053C800009B1B1B93423DDB264F0298264A7843DD
:1053D8008018C0183900FAF7F7FE009B7843E41AE2
:1053E80080232018DB00984200D218001F4B9842F7
:1053F80000D91800164B184918600138AB68686066
:105408000020A860049AD41A9A421ED2039D6219F9
:1054180003000C684D6812196B410A604B60059BCC
:10542800002BACD162B6BFF36F8FA8E71B6803935C
:10543800431CA8D10E480F4B984200DD1800431EAC
:105448000293A4E78020C000D4E72200E0E7C0462A
:10545800E413002010E000E0F0090020E013002031
:10546800E8090020D4300000D330000084C6FF00D3
:105478003D0500003E05000070B5EFF3108572B6DB
:10548800084A094B14681B68E41AFFF7F5FE00196F
:10549800002D02D162B6BFF36F8F0449FAF794FE6C
:1054A80070BDC046F0090020E8090020D430000093
:1054B80070B5EFF3108572B6054B1C68FFF7DCFE7C
:1054C8002018002D02D162B6BFF36F8F70BDC046A1
:1054D800F0090020F7B50C24444301932A4B0092AD
:1054E800E4186368089A05000E00934200D26260CF
:1054F800C0232F1F9B01FFB2E318012F1BD8012ED9
:1055080019D103221A60A3683342FCD0009B226899
:105518005B015340E022134080225201A21813601D
:105528000321236873400B4013600123B340A26832
:105538001342FCD01BE0802212011A60134BAA0010
:10554800D158002907D05869FAF73EFE431C0320BA
:1055580058430338FDD2009B22685B015340E02288
:10556800134080225201A2181360012FD8D980233A
:1055780080229B01E31812011A60089B019A63605C
:10558800024BAD00EA50F7BD00800040E813002050
:10559800F8B51700040029480D001E00FAF714FE9C
:1055A800274B0100FA18274B9A4201D902F084FED2
:1055B8003800FAF709FE02009823103A5B009A4275
:1055C800F4D8731E062BF1D8069B013B062BEDD8A9
:1055D800069B32041E0323681643002B0FDA3F2272
:1055E80023681340AB420AD1A3681B051B0D8342F5
:1055F80005D1EE22E368D2021340B3421CD0124B0D
:105608001249E21853425A4101230C329340104A7E
:105618001360104A13601F000A6897433A1EFAD1B4
:105628000D4B2132E3182560A0601A602268002A19
:10563800FCDA0822E6601A60F8BDC046001BB70015
:1056480080E84BD380F8A9320040FDBF08C0004075
:1056580000E0004000F0004004300000AA22064BA1
:1056680012011A608D225200DA600449044A11605E
:105678005A68002AFCDA70470040024000B0FA007D
:10568800006002408023024A9B000B43D3627047AC
:1056980000800540802310B5DB0518680649030B18
:1056A80002059BB2120D8A4201D002F005FE022BC0
:1056B800FBD1000F10BDC0462709000030B50725F3
:1056C800C4082840800081402000074D3C308000FD
:1056D800A40041511B19002A04D0802292019B1872
:1056E800196030BDC022F9E70040014010B5084BF1
:1056F8008200D3181C6840236340C0242340054C13
:10570800C00012191360044BC018416010BDC04698
:1057180004C0014004D0014000400140064B800015
:10572800C3181B68C90092000A435A400C231A4048
:10573800024BC0180260704704C0014004D0014009
:10574800064BC000C3181B6809075940C0239B05B6
:105758001940034BC01801607047C046044001401F
:1057680004500140064BC000C3181B680904594087
:10577800C0239B021940034BC01801607047C04604
:105788000440014004500140064BC000C3181B6888
:1057980009025940C0239B001940034BC0180160FF
:1057A8007047C0460440014004500140064BC00009
:1057B800C3181B6809035940C0239B011940034BB8
:1057C800C01801607047C0460440014004500140C1
:1057D80002238000002903D0024A80180360704722
:1057E800014AFAE704E0014004F00140054B80005B
:1057F800C3181B68594001231940034BC0180160A6
:105808007047C04604C0014004D00140054B8000E9
:10581800C3181B680901594030231940024BC018AE
:105828000160704704C0014004D00140D02310B586
:105838001B061B685C4263412F245B42A343024C56
:105848001B19FFF73BFF10BD30410140402380008A
:10585800002903D0024A801803607047014AFAE71A
:1058680004E0014004F0014010B50400FCF7CEF953
:1058780003480121034A02F0A8FA200003F02EF998
:10588800A493001068A10010F0B585B005000C00C5
:1058980000AFEFF310837B6072B62D4A9368FB600C
:1058A8002C4B042802D82C4B8100CB586E468AB06A
:1058B800117C6A46D361294B29489384294B50614E
:1058C800956111621361B121274B1032BB60B86832
:1058D80000238901FCF7A0FAB546002C07D0E3693C
:1058E800DB0504D00121214AB86802F06EFAFB6892
:1058F800002B07D0180003F08FF9002802D0037896
:10590800002B00D11A486E468AB06A46194BD061FE
:105918005361FB689361114B1384174B13619121F9
:105928000023114810328901FCF776FA2100B546A8
:105938002800FFF799FF7B68002B02D162B6BFF3FE
:105948006F8FF868FEF7D0F8BD4605B0F0BDC046C9
:105958001015002077A10010FC950010010300002D
:105968008DA1001005000001A4930010B5A100103E
:1059780085A10010D6A1001004000001F8B5012788
:105988000A4E83009D59013084003359AB4200D838
:10599800F8BD6868002806D0037E3B4201D103F0B9
:1059A80077F80835F1E72B689847FAE71096001062
:1059B800012270B5234B032086B01A70FFF7DEFF73
:1059C80001F072FA0420FFF7D9FF1F4C26001F4D83
:1059D800AC420ED300F01EFEAE4220D300F02AFEE9
:1059E800FBF7FEF901211A4A93898B43938106B08C
:1059F80070BD636A0593236A0493E3690393A369FB
:105A080002936369019323690093E368A26861685C
:105A1800206800F003FC23685C653034D7E7B26A7D
:105A2800F36A511C01D1591C05D011003068194383
:105A380003D100F0D5FE3036CEE70649183001F024
:105A48006BF8F8E77E1500203092001030920010B5
:105A5800680A0020098D001070B570260125040021
:105A680046430102114880220918002086B0049597
:105A78000E350395053565430D4B05900290019051
:105A88000C48F6182D180C4B30000095520000F009
:105A9800C5FB0422337C2C74934333740134074BC5
:105AA800E402E418EE606C6006B070BD8028002047
:105AB800F809002010150020ED8A00108020002031
:105AC800F0B5002087B0FFF759FF204B83F3088813
